{
  "_format": "hh-sol-artifact-1",
  "contractName": "SeguroMedico",
  "sourceName": "contracts/SeguroMedico.sol",
  "abi": [
    {
      "inputs": [],
      "name": "cancelarSeguro",
      "outputs": [],
      "stateMutability": "nonpayable",
      "type": "function"
    },
    {
      "inputs": [
        {
          "internalType": "address",
          "name": "_paciente",
          "type": "address"
        }
      ],
      "name": "consultarHistorialRenovaciones",
      "outputs": [
        {
          "internalType": "uint256[]",
          "name": "",
          "type": "uint256[]"
        }
      ],
      "stateMutability": "view",
      "type": "function"
    },
    {
      "inputs": [
        {
          "internalType": "uint256",
          "name": "_duracion",
          "type": "uint256"
        }
      ],
      "name": "crearSeguro",
      "outputs": [],
      "stateMutability": "nonpayable",
      "type": "function"
    },
    {
      "inputs": [
        {
          "internalType": "address",
          "name": "_paciente",
          "type": "address"
        }
      ],
      "name": "esSeguroActivo",
      "outputs": [
        {
          "internalType": "bool",
          "name": "",
          "type": "bool"
        }
      ],
      "stateMutability": "view",
      "type": "function"
    },
    {
      "inputs": [
        {
          "internalType": "uint256",
          "name": "_duracion",
          "type": "uint256"
        }
      ],
      "name": "renovarSeguro",
      "outputs": [],
      "stateMutability": "nonpayable",
      "type": "function"
    },
    {
      "inputs": [
        {
          "internalType": "address",
          "name": "",
          "type": "address"
        }
      ],
      "name": "seguros",
      "outputs": [
        {
          "internalType": "uint256",
          "name": "fechaInicio",
          "type": "uint256"
        },
        {
          "internalType": "uint256",
          "name": "fechaVencimiento",
          "type": "uint256"
        },
        {
          "internalType": "bool",
          "name": "activo",
          "type": "bool"
        },
        {
          "internalType": "address",
          "name": "paciente",
          "type": "address"
        }
      ],
      "stateMutability": "view",
      "type": "function"
    }
  ],
  "bytecode": "0x608060405234801561001057600080fd5b506105aa806100206000396000f3fe608060405234801561001057600080fd5b50600436106100625760003560e01c80630b5c8f091461006757806323b4f1811461008f5780633693ef23146100af57806362d0779d146100c4578063b72b0df6146100e3578063d2c0c5bb14610154575b600080fd5b61007a6100753660046104c7565b610167565b60405190151581526020015b60405180910390f35b6100a261009d3660046104c7565b61022d565b60405161008691906104f0565b6100c26100bd366004610534565b61029a565b005b6100c2336000908152602081905260409020600201805460ff19169055565b6101256100f13660046104c7565b60006020819052908152604090208054600182015460029092015490919060ff81169061010090046001600160a01b031684565b604080519485526020850193909352901515918301919091526001600160a01b03166060820152608001610086565b6100c2610162366004610534565b6103b9565b6001600160a01b03808216600090815260208181526040808320815160a08101835281548152600182015481850152600282015460ff811615158285015261010090049095166060860152600381018054835181860281018601909452808452949586959094929360808601939092919083018282801561020757602002820191906000526020600020905b8154815260200190600101908083116101f3575b5050505050815250509050806040015180156102265750806020015142105b9392505050565b6001600160a01b0381166000908152602081815260409182902060030180548351818402810184019094528084526060939283018282801561028e57602002820191906000526020600020905b81548152602001906001019080831161027a575b50505050509050919050565b3360009081526020819052604090206002015460ff16156103025760405162461bcd60e51b815260206004820152601b60248201527f5961207469656e657320756e2073656775726f2061637469766f2e000000000060448201526064015b60405180910390fd5b42600061030f838361054d565b6040805160a081018252848152602080820184815260018385018181523360608601818152875160008082528188018a526080890191825292835282875297909120865181559351928401929092555160028301805492516001600160a01b031661010002610100600160a81b0319921515929092166001600160a81b0319909316929092171790559251805194955091936103b19260038501920190610467565b505050505050565b3360009081526020819052604090206002015460ff1615156001146104205760405162461bcd60e51b815260206004820152601b60248201527f4e6f207469656e657320756e2073656775726f2061637469766f2e000000000060448201526064016102f9565b3360008181526020818152604082206003810180546001818101835591855292842042930192909255928252909101805483929061045f90849061054d565b909155505050565b8280548282559060005260206000209081019282156104a2579160200282015b828111156104a2578251825591602001919060010190610487565b506104ae9291506104b2565b5090565b5b808211156104ae57600081556001016104b3565b6000602082840312156104d957600080fd5b81356001600160a01b038116811461022657600080fd5b6020808252825182820181905260009190848201906040850190845b818110156105285783518352928401929184019160010161050c565b50909695505050505050565b60006020828403121561054657600080fd5b5035919050565b8082018082111561056e57634e487b7160e01b600052601160045260246000fd5b9291505056fea2646970667358221220c48ec5adb4f634888f3cb149b791224a49e1143af78ffa474982a8b071e8f1c464736f6c63430008110033",
  "linkReferences": {},
  "deployedLinkReferences": {}
}